:100000000C9458000C9480000C9480000C94800098
:100010000C9480000C9480000C9480000C94800060
:100020000C9480000C9480000C9480000C94800050
:100030000C9480000C9480000C9480000C94800040
:100040000C943D030C9480000C9480000C94800070
:100050000C9480000C9480000C9480000C94800020
:100060000C9410020C9480000000000800020100B3
:100070000003040700000000000000000102040863
:100080001020408001020408102001020408102002
:10009000040404040404040402020202020203032E
:1000A0000303030300000000250028002B00720159
:1000B00011241FBECFEFD8E0DEBFCDBF11E0A0E01E
:1000C000B1E0EAE0F9E002C005900D92A631B10777
:1000D000D9F721E0A6E1B1E001C01D92AF3DB20722
:1000E000E1F710E0C0EBD0E004C02297FE010E94CF
:1000F0007F04CE3AD107C9F70E946D040C948304A3
:100100000C94000086E191E00C9446016FE070E0F1
:1001100086E191E00E945A01E0911601F0911701E9
:100120000280F381E02D44E050E061E071E086E17F
:1001300091E009956091000186E191E00E9407013C
:1001400086E191E00E946F01809100018F5F8093B2
:10015000000164E670E080E090E00C94AA038091D6
:10016000460190E020914701821B9109089520915A
:10017000470180914601281750F4E22FF0E0E85B38
:10018000FE4F808190E02F5F2093470108958FEF0D
:100190009FEF0895E091470180914601E81730F400
:1001A000F0E0E85BFE4F808190E008958FEF9FEFD5
:1001B00008950895CF92DF92EF92FF920F931F93CD
:1001C000CF93DF937C01CB018A012091220122236E
:1001D00089F0EB016B01C40ED51ECC15DD0569F06D
:1001E0006991D701ED91FC910190F081E02DC7015B
:1001F0000995F3CF642F0E94E701C801DF91CF91E9
:100200001F910F91FF90EF90DF90CF900895CF93C3
:10021000DF931F92CDB7DEB769832091220122239D
:10022000D1F020912301203240F021E030E0FC01A8
:100230003383228380E090E015C080912401E82F71
:10024000F0E0EB5DFE4F998190838F5F80932401F6
:100250008093230105C061E0CE0101960E94E70171
:1002600081E090E00F90DF91CF910895FC0113821F
:10027000128248EE53E060E070E044835583668369
:1002800077838AE091E091838083089510924701FB
:100290001092460110922401109223010C947601D1
:1002A00081E0809322016093450110922401109215
:1002B000230108950C9450010F93062F21E04091E3
:1002C000230165E271E0809145010E949401109242
:1002D000240110922301109222010F91089561E0F0
:1002E0000C945C0186E191E00C9436011092D501EA
:1002F00081E08093D3011092D20161E082E10E94FB
:10030000360461E083E10E943604E9EBF0E080818D
:100310008E7F808380818D7F808388E48093B80086
:1003200085E48093BC0008950F93413208F046C0E5
:100330009091D5019111FCCF92E09093D50100935B
:10034000D3019FEF909368011092AD014093AC01EF
:10035000FB016EEA71E0DB019A2F961B941718F4EB
:1003600091919D93F9CF1092D4019091D401880F6F
:10037000892B8093D4018091D201813041F4109275
:10038000D2018091D4018093BB0085EC01C085EE41
:100390008093BC00222321F08091D5018230E1F3CB
:1003A000809168018F3F61F080916801803251F047
:1003B00080916801803341F483E007C081E005C08B
:1003C00080E003C082E001C084E00F9108956132B3
:1003D00098F42091D501243089F460938A01FC01BE
:1003E0008CE891E0DC012A2F281B261718F42191B4
:1003F0002D93F9CF80E0089581E0089582E008957B
:1004000085ED8093BC008091BC0084FDFCCF1092F0
:10041000D501089585EC8093BC001092D501089514
:100420001F920F920FB60F9211242F933F934F9369
:100430005F936F937F938F939F93AF93BF93EF934C
:10044000FF938091B900887F803609F49CC068F5DD
:10045000883209F45BC090F4803109F454C038F458
:10046000882309F4F5C0883009F44DC0F5C08831FF
:1004700009F44CC0803209F45DC0EEC0803409F448
:1004800068C048F4803309F455C0883309F0E4C0EB
:1004900080936801A8C0803509F44FC0883509F4FD
:1004A0005DC0883409F0D8C0D5C0883909F4C6C009
:1004B000A8F4883709F467C038F4883609F463C0B3
:1004C000803709F460C0C8C0883809F4B7C08039E3
:1004D00009F45FC0803809F0BFC05BC0803B09F4FD
:1004E00085C038F4803A09F466C0883A09F47EC0C1
:1004F000B3C0803C09F4A6C0883C09F4A3C0883B83
:1005000009F489C0A9C08091D40110C09091AD01B7
:100510008091AC01981770F5E091AD0181E08E0FEC
:100520008093AD01F0E0E255FE4F80818093BB00E7
:1005300085EC85C0809368018DC0E091AD0181E0BC
:100540008E0F8093AD018091BB00F0E0E255FE4F2D
:1005500080839091AD018091AC016DC0E091AD01BF
:1005600081E08E0F8093AD018091BB00F0E0E255F9
:10057000FE4F80838091D30181116CC081E0809314
:10058000D20184EA60C083E08093D50110926901B2
:10059000CFCF80916901803208F050C0E0916901AD
:1005A00081E08E0F809369018091BB00F0E0E659F5
:1005B000FE4F8083BDCF80916901803230F4E0919D
:1005C0006901F0E0E659FE4F10820E94000260913E
:1005D000690170E0E091CE01F091CF018AE691E0EF
:1005E0000995109269010E940A0236C084E0809346
:1005F000D50110928B0110928A01E091D001F09107
:10060000D101099580918A01811105C081E0809313
:100610008A0110928C01E0918B0181E08E0F809312
:100620008B01F0E0E457FE4F80818093BB009091F6
:100630008B0180918A01981708F47ACF85E880931E
:10064000BC000AC085EC8093BC001092D50104C0A8
:10065000109268010E940002FF91EF91BF91AF914B
:100660009F918F917F916F915F914F913F912F91CA
:100670000F900FBE0F901F9018951F920F920FB6FC
:100680000F9211242F933F938F939F93AF93BF9318
:100690008091D7019091D801A091D901B091DA0150
:1006A0003091D60123E0230F2D3720F40196A11DB0
:1006B000B11D05C026E8230F0296A11DB11D209390
:1006C000D6018093D7019093D801A093D901B0931C
:1006D000DA018091DB019091DC01A091DD01B09104
:1006E000DE010196A11DB11D8093DB019093DC0119
:1006F000A093DD01B093DE01BF91AF919F918F91E7
:100700003F912F910F900FBE0F901F9018953FB7FC
:10071000F8948091DB019091DC01A091DD01B09112
:10072000DE0126B5A89B05C02F3F19F00196A11D3B
:10073000B11D3FBF6627782F892F9A2F620F711D39
:10074000811D911D42E0660F771F881F991F4A95F2
:10075000D1F70895CF92DF92EF92FF92CF93DF937C
:100760006B017C010E948703EB01C114D104E104F9
:10077000F10489F00E947C040E9487036C1B7D0BAE
:10078000683E734090F381E0C81AD108E108F1088F
:10079000C851DC4FEACFDF91CF91FF90EF90DF900F
:1007A000CF900895789484B5826084BD84B58160CB
:1007B00084BD85B5826085BD85B5816085BDEEE669
:1007C000F0E0808181608083E1E8F0E01082808148
:1007D00082608083808181608083E0E8F0E08081B6
:1007E00081608083E1EBF0E0808184608083E0EBD6
:1007F000F0E0808181608083EAE7F0E080818460BE
:100800008083808182608083808181608083808119
:10081000806880831092C1000895833081F028F4AD
:10082000813099F08230A1F008958730A9F08830A6
:10083000B9F08430D1F4809180008F7D03C0809125
:1008400080008F7780938000089584B58F7702C0F1
:1008500084B58F7D84BD08958091B0008F7703C0EB
:100860008091B0008F7D8093B00008950F931F9307
:10087000CF93DF931F92CDB7DEB7282F30E0F90179
:10088000E859FF4F8491F901E458FF4F1491F901A1
:10089000E057FF4F04910023C9F0882321F06983BA
:1008A0000E940D046981E02FF0E0EE0FFF1FEC5570
:1008B000FF4FA591B4919FB7F8948C91611103C03B
:1008C0001095812301C0812B8C939FBF0F90DF91E6
:1008D000CF911F910F91089508950E94D2030E9415
:1008E0006C040E948200C0E0D0E00E948600209745
:1008F000E1F30E940000F9CF0895EE0FFF1F05906D
:0A090000F491E02D0994F894FFCF64
:10090A000441524D2000000000000701DA00AF0048
:06091A00B700CA00D9007D
:00000001FF
