:100000000C9459000C9481000C9481000C94810094
:100010000C9481000C9481000C9481000C9481005C
:100020000C9481000C9481000C9481000C9481004C
:100030000C9481000C9481000C9481000C9481003C
:100040000C9429030C9481000C949D050C94CF050D
:100050000C9481000C9481000C9481000C9481001C
:100060000C94FC010C9481000000000800020100C7
:100070000003040700000000000000000102040863
:100080001020408001020408102001020408102002
:10009000040404040404040402020202020203032E
:1000A0000303030300000000250028002B00A30128
:1000B000FF0511241FBECFEFD8E0DEBFCDBF11E09A
:1000C000A0E0B1E0E2E2FFE002C005900D92A032B4
:1000D000B107D9F722E0A0E2B1E001C01D92A93832
:1000E000B207E1F710E0C2EBD0E004C02297FE01B6
:1000F0000E948B07CE3AD107C9F70E9443060C94A1
:100100008F070C9400006FE070E080E291E00E94A5
:100110009C016EE970E080E291E00E949E0126E081
:1001200040E855E260E070E08CEE91E00C943B0515
:1001300064E670E080E090E00C94960380E291E049
:100140000E94B900029754F080E291E00E94C10041
:10015000682F8CEE91E00E949006F0CF80E291E053
:100160000E94C1004AE050E0BC018CEE91E00C948A
:100170004E078091530190E020915401821B910918
:1001800008952091540180915301281750F4E22FD3
:10019000F0E0EB5AFE4F808190E02F5F20935401F6
:1001A00008958FEF9FEF0895E091540180915301DE
:1001B000E81730F4F0E0EB5AFE4F808190E00895AC
:1001C0008FEF9FEF08950895E0912C01F0912D019C
:1001D0003097E1F030915401209153013217B0F083
:1001E00040E0242F30E02617370754F4DC01A20F3B
:1001F000B31F5C91D901AB5ABE4F5C934F5FF1CFF7
:100200001092540160935301CB0109940895E09139
:100210002E01F0912F01309729F0109232011092A7
:10022000310109940895CF92DF92EF92FF920F93DC
:100230001F93CF93DF937C01CB018A012091300182
:10024000222389F0EB016B01C40ED51ECC15DD0510
:1002500069F06991D701ED91FC910190F081E02D59
:10026000C7010995F3CF642F0E94C901C801DF912E
:10027000CF911F910F91FF90EF90DF90CF90089555
:10028000CF93DF931F92CDB7DEB769832091300102
:100290002223D1F020913101203240F021E030E0E2
:1002A000FC013383228380E090E015C0809132010D
:1002B000E82FF0E0ED5CFE4F998190838F5F809393
:1002C00032018093310105C061E0CE0101960E94A8
:1002D000C90181E090E00F90DF91CF910895FC017A
:1002E0001382128248EE53E060E070E0448355834D
:1002F0006683778384E091E09183808308951092F0
:1003000054011092530110923201109231010C9459
:10031000A701CF93DF93EC01862F0E94C50187E0F0
:1003200091E00E94E70184EE90E00E94E201CE019C
:10033000DF91CF910C947F010C94890170932D0172
:1003400060932C01089580E291E00C946F0110926B
:10035000E20181E08093E0011092DF0161E082E13F
:100360000E94220461E083E10E942204E9EBF0E0B4
:1003700080818E7F808380818D7F808388E48093DD
:10038000B80085E48093BC000895880F8093BA007C
:100390000895613298F42091E201243089F4609349
:1003A0009701FC0189E991E0DC012A2F281B26171F
:1003B00018F421912D93F9CF80E0089581E00895FC
:1003C00082E008959093DC018093DB01089590937F
:1003D000DE018093DD01089585ED8093BC0080915E
:1003E000BC0084FDFCCF1092E201089585EC80935F
:1003F000BC001092E20108951F920F920FB60F9267
:1004000011242F933F934F935F936F937F938F9319
:100410009F93AF93BF93EF93FF938091B900887F31
:10042000803609F49CC068F5883209F45BC090F40A
:10043000803109F454C038F4882309F4F5C08830B9
:1004400009F44DC0F5C0883109F44CC0803209F47C
:100450005DC0EEC0803409F468C048F4803309F40C
:1004600055C0883309F0E4C080937501A8C0803579
:1004700009F44FC0883509F45DC0883409F0D8C04C
:10048000D5C0883909F4C6C0A8F4883709F467C014
:1004900038F4883609F463C0803709F460C0C8C0F6
:1004A000883809F4B7C0803909F45FC0803809F092
:1004B000BFC05BC0803B09F485C038F4803A09F4C2
:1004C00066C0883A09F47EC0B3C0803C09F4A6C077
:1004D000883C09F4A3C0883B09F489C0A9C0809175
:1004E000E10110C09091BA018091B901981770F59F
:1004F000E091BA0181E08E0F8093BA01F0E0E554FB
:10050000FE4F80818093BB0085EC85C08093750190
:100510008DC0E091BA0181E08E0F8093BA01809185
:10052000BB00F0E0E554FE4F80839091BA018091CA
:10053000B9016DC0E091BA0181E08E0F8093BA01DC
:100540008091BB00F0E0E554FE4F80838091E00194
:1005500081116CC081E08093DF0184EA60C083E098
:100560008093E20110927601CFCF809176018032A4
:1005700008F050C0E091760181E08E0F8093760103
:100580008091BB00F0E0E958FE4F8083BDCF8091A1
:100590007601803230F4E0917601F0E0E958FE4FC8
:1005A00010820E94EC016091760170E0E091DB0125
:1005B000F091DC0187E791E00995109276010E94A5
:1005C000F60136C084E08093E20110929801109207
:1005D0009701E091DD01F091DE010995809197018D
:1005E000811105C081E08093970110929901E091FB
:1005F000980181E08E0F80939801F0E0E756FE4F5E
:1006000080818093BB009091980180919701981709
:1006100008F47ACF85E88093BC000AC085EC80930B
:10062000BC001092E20104C0109275010E94EC011E
:10063000FF91EF91BF91AF919F918F917F916F91BA
:100640005F914F913F912F910F900FBE0F901F9090
:1006500018951F920F920FB60F9211242F933F936C
:100660008F939F93AF93BF938091E4019091E501A5
:10067000A091E601B091E7013091E30123E0230F5F
:100680002D3720F40196A11DB11D05C026E8230FCA
:100690000296A11DB11D2093E3018093E401909384
:1006A000E501A093E601B093E7018091E801909104
:1006B000E901A091EA01B091EB010196A11DB11DE4
:1006C0008093E8019093E901A093EA01B093EB01D4
:1006D000BF91AF919F918F913F912F910F900FBE3E
:1006E0000F901F9018953FB7F8948091E801909172
:1006F000E901A091EA01B091EB0126B5A89B05C0E4
:100700002F3F19F00196A11DB11D3FBF6627782F1D
:10071000892F9A2F620F711D811D911D42E0660F76
:10072000771F881F991F4A95D1F70895CF92DF92BE
:10073000EF92FF92CF93DF936B017C010E947303D2
:10074000EB01C114D104E104F10489F00E946607B1
:100750000E9473036C1B7D0B683E734090F381E035
:10076000C81AD108E108F108C851DC4FEACFDF917F
:10077000CF91FF90EF90DF90CF900895789484B55B
:10078000826084BD84B5816084BD85B5826085BD8D
:1007900085B5816085BDEEE6F0E080818160808373
:1007A000E1E8F0E010828081826080838081816056
:1007B0008083E0E8F0E0808181608083E1EBF0E01D
:1007C000808184608083E0EBF0E0808181608083C1
:1007D000EAE7F0E0808184608083808182608083AA
:1007E0008081816080838081806880831092C100D5
:1007F0000895833081F028F4813099F08230A1F09F
:1008000008958730A9F08830B9F08430D1F4809110
:1008100080008F7D03C0809180008F77809380005F
:10082000089584B58F7702C084B58F7D84BD089507
:100830008091B0008F7703C08091B0008F7D80934E
:10084000B00008950F931F93CF93DF931F92CDB7FE
:10085000DEB7282F30E0F901E859FF4F8491F90104
:10086000E458FF4F1491F901E057FF4F0491002322
:10087000C9F0882321F069830E94F9036981E02F80
:10088000F0E0EE0FFF1FEC55FF4FA591B4919FB71D
:10089000F8948C91611103C01095812301C0812BC4
:1008A0008C939FBF0F90DF91CF911F910F9108956F
:1008B000FC01818D228D90E0805C9F4F821B91090D
:1008C0008F7399270895FC01918D828D981731F0CF
:1008D000828DE80FF11D858D90E008958FEF9FEFD9
:1008E0000895FC01918D828D981761F0828DDF0152
:1008F000A80FB11D5D968C91928D9F5F9F73928F13
:1009000090E008958FEF9FEF089585EF95E0892B94
:1009100049F080E090E0892B29F00E94F5058111D3
:100920000C9400000895FC01848DDF01A80FB11D17
:10093000A35ABF4F2C91848D90E001968F73992715
:10094000848FA689B7892C93A089B1898C91806402
:100950008C93938D848D981306C00288F389E02DC3
:1009600080818F7D80830895CF93DF93EC01888D04
:100970008823C9F0EA89FB89808185FD05C0A889A3
:10098000B9898C9186FD0FC00FB607FCF5CF808129
:1009900085FFF2CFA889B9898C9185FFEDCFCE0173
:1009A0000E949304E7CFDF91CF910895CF92DF9219
:1009B000FF920F931F93CF93DF931F92CDB7DEB7B4
:1009C0006C01DC015B969C915B975C968C915C97CB
:1009D000981307C05096ED91FC915197808185FD49
:1009E00032C0F601038D10E00F5F1F4F0F73112708
:1009F000F02EF601848DF81211C00FB607FCF9CF66
:100A0000D6015096ED91FC915197808185FFF1CFF1
:100A1000C60169830E9493046981EBCF838DE80F3F
:100A2000F11DE35AFF4F6083D6015B960C935B97F1
:100A30005296ED91FC91539780818062808381E092
:100A400058968C930DC0D6015696ED91FC91579710
:100A500060835096ED91FC915197808180648083F2
:100A600081E090E00F90DF91CF911F910F91FF9067
:100A7000DF90CF900895BF92CF92DF92EF92FF92D6
:100A8000CF93DF93EC016A017B01B22EE889F989EB
:100A900082E08083411581EE580761057105A1F060
:100AA00060E079E08DE390E0A70196010E9467077E
:100AB0002150310941095109569547953795279598
:100AC000211580E1380798F0E889F989108260E8FB
:100AD00074E88EE190E0A70196010E94670721501B
:100AE0003109410951095695479537952795EC8568
:100AF000FD853083EE85FF852083188EEC89FD8986
:100B0000B082EA89FB89808180618083EA89FB89E0
:100B1000808188608083EA89FB8980818068808306
:100B2000EA89FB8980818F7D8083DF91CF91FF905F
:100B3000EF90DF90CF90BF9008951F920F920FB665
:100B40000F9211242F938F939F93EF93FF93E09134
:100B5000FC01F091FD018081E0910202F09103021D
:100B600082FD12C09081809105028F5F8F7320916A
:100B70000602821751F0E0910502F0E0E451FE4FC9
:100B8000958F8093050201C08081FF91EF919F9125
:100B90008F912F910F900FBE0F901F9018951F925D
:100BA0000F920FB60F9211242F933F934F935F93A1
:100BB0006F937F938F939F93AF93BF93EF93FF9325
:100BC0008CEE91E00E949304FF91EF91BF91AF9161
:100BD0009F918F917F916F915F914F913F912F9155
:100BE0000F900FBE0F901F9018958CEE91E00E9411
:100BF000580421E0892B09F420E0822F08951092F7
:100C0000EF011092EE0188EE93E0A0E0B0E0809357
:100C1000F0019093F101A093F201B093F30184E10C
:100C200091E09093ED018093EC0185EC90E090933E
:100C3000F9018093F80184EC90E09093FB0180939C
:100C4000FA0180EC90E09093FD018093FC0181EC2F
:100C500090E09093FF018093FE0182EC90E09093EE
:100C600001028093000286EC90E09093030280934F
:100C700002021092050210920602109207021092D0
:100C80000802089508950E94BE030E9442060E9431
:100C90008300C5E8D4E00E9498002097E1F30E9409
:100CA0008504F9CFCF92DF92EF92FF920F931F93BB
:100CB000CF93DF936C017A01EB01E60EF71E00E0A3
:100CC00010E0CE15DF0561F06991D601ED91FC9140
:100CD0000190F081E02DC6010995080F191FF1CF91
:100CE000C801DF91CF911F910F91FF90EF90DF909E
:100CF000CF9008956115710581F0DB010D90002002
:100D0000E9F7AD0141505109461B570BDC01ED914C
:100D1000FC910280F381E02D099480E090E0089539
:100D2000DC01ED91FC910190F081E02D09940F938D
:100D30001F93CF93DF93EC016DE00E9490068C012E
:100D40006AE0CE010E949006800F911FDF91CF9143
:100D50001F910F9108958F929F92AF92BF92CF9261
:100D6000DF92EF92FF920F931F93CF93DF93CDB754
:100D7000DEB7A1970FB6F894DEBF0FBECDBF7C01E2
:100D8000C42EE52FCB01D22E19A221E02D1510F093
:100D90002AE0D22E8E010F5D1F4F8D2C912CA12C9D
:100DA000B12C6C2D7E2FA50194010E9467078C2D1C
:100DB000D29E80191124015011098A3014F4805DEB
:100DC00001C0895CF8018083211531054105510579
:100DD00021F0C22EE32FCA01E4CFB801C7010E945F
:100DE0007A06A1960FB6F894DEBF0FBECDBFDF9195
:100DF000CF911F910F91FF90EF90DF90CF90BF9018
:100E0000AF909F908F900895CF92DF92EF92FF92D4
:100E10000F931F93CF93DF93EC016A017B012115A0
:100E2000310579F4E881F9810190F081E02D642F9A
:100E3000DF91CF911F910F91FF90EF90DF90CF90B6
:100E400009942A303105E9F477FF1AC06DE20E9457
:100E500090068C0144275527BA014C195D096E098B
:100E60007F092AE0CE010E94AB06800F911FDF911F
:100E7000CF911F910F91FF90EF90DF90CF90089549
:100E80002AE0B701A601CE01DF91CF911F910F910A
:100E9000FF90EF90DF90CF900C94AB060F931F93D1
:100EA000CF93DF93EC019A01AB01662757FD609564
:100EB000762F0E9404078C01CE010E949706800FB6
:100EC000911FDF91CF911F910F9108950895A1E295
:100ED0001A2EAA1BBB1BFD010DC0AA1FBB1FEE1FB4
:100EE000FF1FA217B307E407F50720F0A21BB30BFF
:100EF000E40BF50B661F771F881F991F1A9469F77B
:100F000060957095809590959B01AC01BD01CF01D6
:100F10000895EE0FFF1F0590F491E02D0994F894C9
:020F2000FFCF01
:100F22000000000040011301B900C100D400E30039
:100F320000000000D6045206580471046304B4048D
:00000001FF
