:060000000A128A11FC2F18
:100D52000A128A11BF2683160313111408000A12FD
:100D62008A11BF2683160313111508000A128A116D
:100D7200BF2670088312031393000800831603131F
:100D820011081F39031DBF2E141D0800BF2E00308D
:100D9200FC000030FB000030FA000030F900701C4B
:100DA200E62E7408F907750803110318013E031DA6
:100DB200FA07760803110318013E031DFB077708A3
:100DC20003110318013E031DFC070130F800031054
:100DD200F40DF50DF60DF70DF80BE82E01300310AA
:100DE200F30CF20CF10CF00CFF3E031DF02E730815
:100DF200720471047004031DD02E7C08F3007B087A
:100E0200F2007A08F1007908F0000800003083123D
:100E12000313B0000030AF000030AE006430AD000C
:100E22000A128A114B270A128A110A128A11A9265A
:100E32000A128A11D030F0000030F1000A128A1131
:100E4200B7260A128A118830F0000030F1000A1227
:100E52008A11B7260A128A11FF30F0000030F10021
:100E62000A128A11B7260A128A110A128A11B026A8
:100E72000A128A111A3083120313B7005E30B600C9
:100E82008630B500B50B432FB60B432FB70B432F5C
:100E92000000162F831603138715071628308312B6
:100EA20003139400831603139101831203132D0875
:100EB200B1002E08B2002F08B3003008B40002308F
:100EC2000310B10DB20DB30DB40DFF3E031D612F22
:100ED2003408F3003308F2003208F1003108F00060
:100EE2000030F7000030F6000030F5006430F40006
:100EF2000A128A11C8260A128A117308831203136E
:100F0200A3007208A2007108A1007008A0000130BD
:100F1200A7003130A6002D30A5000030A4000A122F
:100F22008A119C27831203132008FF3E83160313A2
:100F3200930094010800003083120313AB000030C9
:100F4200AA000030A9000030A800230822042104CE
:100F520020040319F32FAC01AC0AA31BBE2F0130EE
:100F6200FD000310A00DA10DA20DA30DFD0BB22FCC
:100F72000130FD007D08AC07AE2F0130FD000310EB
:100F8200A80DA90DAA0DAB0DFD0BC02F230827023A
:100F9200031DD52F22082602031DD52F2108250265
:100FA200031DD52F20082402031CE62F2008A402CB
:100FB2002108031C210FA5022208031C220FA602EE
:100FC2002308031C230FA702281401300310A30CCB
:100FD200A20CA10CA00CFF3E031DE72F0130AC02B6
:100FE200031DBE2F2B08A3002A08A2002908A10076
:0E0FF2002808A000080083010A128A11072FA8
:02400E00723FFF
:00000001FF
